:10000000000002204F0C0000AB0800008902000035
:1000100000000000000000000000000000000000E0
:10002000000000000000000000000000AD0800001B
:100030000000000000000000AF080000B108000050
:10004000B308000001010000B5080000B708000077
:10005000B9080000BB080000BD080000BF08000090
:10006000C1080000C3080000C508000045080000E2
:10007000C7080000C9080000CB080000CD08000038
:10008000CF080000D1080000D3080000D508000008
:10009000D7080000D9080000DB080000DD080000D8
:1000A000DF080000E1080000E3080000E5080000A8
:1000B000E7080000E908000001090000010900004C
:1000C000EB080000ED080000EF080000F108000058
:1000D000F3080000F5080000F7080000F908000028
:1000E000FB080000010900000109000001090000EF
:1000F00001090000FD08000001090000FF080000E0
:1001000080B588B041F21010C4F2000000680028E9
:1001100000F0B88041F21011C4F200010020086024
:1001200041F20040C4F200000068012806D040F609
:100130002C60C0F2000000F096FDA3E040F2C84041
:10014000C2F200008078013801460791082800F2C9
:1001500099800799DFE801F00515252D3D4D96960C
:10016000720040F22070C2F200000721069100F0F8
:100170008FFA069940F21270C2F2000000F088FA7D
:1001800080E040F22770C2F200000721059100F0E4
:100190007FFA059940F21970C2F2000000F078FA77
:1001A00070E040F22E70C2F20000072100F070FAF9
:1001B00068E040F24A70C2F200000721049100F0AA
:1001C00067FA049940F23570C2F2000000F060FA5C
:1001D00058E040F25870C2F200000721039100F08D
:1001E00057FA039940F24370C2F2000000F050FA4F
:1001F00048E040F24370C2F200000721029100F093
:1002000047FA029940F25870C2F2000000F040FA3A
:10021000029940F23C70C2F2000000F039FA0299F3
:1002200040F22070C2F2000000F032FA029940F26F
:100230000470C2F2000000F02BFA23E040F2437099
:10024000C2F200000721019100F022FA019940F268
:100250005870C2F2000000F01BFA019940F2517090
:10026000C2F2000000F014FA019940F21270C2F2DA
:10027000000000F00DFA019940F20B70C2F200008C
:0802800000F006FA08B080BD91
:1002880008490A68002AFED41EF0040F0CBFEFF3D9
:100298000880EFF3098042F000420A608169023168
:0802A800816170472CED00E0BC
:1002B000034C206804348047FBE700F03EFCFEE777
:0402C0005C0E0000D0
:1002C4005AB3844690EA01039B071FD1830707D0E2
:1002D40011F8013B00F8013B013AF7D11CE08446D8
:1002E400203A09D32DE9F007B1E8F807A0E8F807A8
:1002F400203AF9D2BDE8F0071C3205D451F8043B8A
:1003040040F8043B043AF9D2043205D011F8013B19
:0C03140000F8013B013AF9D16046704747
:1003200080B500F0E2F878B140F20C11C4F200019F
:100330000020086040F21011C4F20001086040F291
:100340003851C4F20001086000F000F9002800F004
:10035000AA8040F20440C1F2000000684CF2205133
:10036000C4F20001086040F20840C1F200000068D9
:100370004CF22451C4F20001086040F20C40C1F27A
:10038000000000684CF22851C4F20001086040F2FD
:100390001040C1F2000000684CF22C51C4F2000180
:1003A000086040F21440C1F2000000684CF2305185
:1003B000C4F20001086040F21840C1F20000006879
:1003C0004CF23451C4F20001086040F21C40C1F20A
:1003D000000000684CF24051C4F20001086040F295
:1003E0002040C1F2000000684CF24451C4F2000108
:1003F000086040F22440C1F2000000684CF248510D
:10040000C4F20001086040F22840C1F20000006818
:100410004CF24C51C4F20001086040F22C40C1F291
:10042000000000684CF25051C4F20001086040F234
:100430003040C1F2000000684CF25451C4F2000197
:10044000086040F23440C1F2000000684CF2605194
:10045000C4F20001086040F23840C1F200000068B8
:100460004CF26451C4F20001086040F23C40C1F219
:10047000000000684CF26851C4F20001086040F2CC
:100480004040C1F2000000684CF26C51C4F200011F
:10049000086040F24440C1F2000000684CF2705124
:1004A000C4F20001086000F082F868B140F2004038
:1004B000C4F200000068C00730B140F20041C4F24D
:1004C00000016FF0010008604EF68851CEF2000185
:1004D000086840F470000860BFF34F8FBFF36F8F60
:0A04E00000F096F800F087FA80BDE6
:1004EA0084B040F23010C1F200000068029040F27D
:1004FA003410C1F200000068019002980D2819D149
:10050A000198009030B10098012807D0009802287D
:10051A0008D00BE001208DF80F000EE001208DF8C5
:10052A000F000AE001208DF80F0006E001208DF887
:10053A000F0002E000208DF80F009DF80F0004B0B4
:02054A007047F8
:10054C0084B040F23010C1F200000068029040F21A
:10055C003410C1F200000068019002980D2819D1E6
:10056C000198009030B10098012807D0009802281B
:10057C0008D00BE001208DF80F000EE001208DF863
:10058C000F000AE001208DF80F0006E001208DF825
:10059C000F0002E000208DF80F009DF80F0004B052
:0205AC00704796
:1005AE0084B040F23010C1F200000068029040F2B8
:1005BE003410C1F200000068019002980D2819D184
:1005CE000198009030B10098012807D000980228B9
:1005DE0008D00BE001208DF80F000EE001208DF801
:1005EE000F000AE001208DF80F0006E001208DF8C3
:1005FE000F0002E000208DF80F009DF80F0004B0F0
:02060E00704733
:1006100080B500F00CF848B141F20820C1F20000AA
:0E062000006840F25851C4F20001086080BD2D
:10062E0084B040F23010C1F200000068029040F237
:10063E003410C1F200000068019002980D2819D103
:10064E000198009030B10098012807D00098022838
:10065E0008D00BE000208DF80F000EE000208DF882
:10066E000F000AE001208DF80F0006E001208DF842
:10067E000F0002E000208DF80F009DF80F0004B06F
:02068E007047B3
:1006900082B001908DF8031000208DF802000199BE
:1006A0009DF80220895C43F21C52C4F200021160E2
:1006B00043F21C11C4F20001086043F20801C4F2C5
:1006C0000001012008609DF8020001308DF8020051
:1006D0009DF802009DF8031088421BDA43F21C10BB
:1006E000C4F20000006800B9F8E743F21C11C4F23C
:1006F00000010020086001989DF80210405C43F260
:100700001C51C4F2000108609DF8020001308DF810
:100710000200DDE743F21C10C4F20000006800B9DB
:10072000F8E743F21401C4F200010120086002B0AE
:02073000704710
:1007320081B0ADF802004CF20810C4F2010000686A
:10074200012812D14CF20411C4F201010020086008
:100752004CF20401C4F20101012008604CF20410C1
:10076200C4F20100006800B9F8E7BDF802004CF2DB
:100772000851C4F201010860BDF80200400840F2CD
:10078200B401C2F2000108804CF20811C4F2010166
:10079200002008604CF20801C4F201010120086047
:1007A2004CF20810C4F20100006800B9F8E701B089
:0207B20070478E
:1007B40080B582B04BF24431C4F200014FF4803072
:1007C40008604BF20431C4F2000108600B20009071
:1007D4000121019100F015F8009800F080F90098CB
:1007E40000F093F901984BF24052C4F200024FF426
:1007F400487111604BF20001C4F20001086002B0BC
:0208040080BDB5
:1008060082B08DF8070000919DF90700002809D4F1
:10081600009840019DF907104EF20042CEF2000208
:1008260088540AE0009840019DF8071001F00F0176
:0E0836004EF61452CEF20002885402B0704703
:1008440080B582B04BF24010C4F200000068012869
:1008540027D14BF24011C4F20001002008604BF292
:100864000801C4F200010120086040F2B600C2F29F
:1008740000000190018840F2E440C2F2000030F828
:100884001100FFF754FF0199088801304FF2F1027B
:10089400C0F2F002A0FB023202EB0212A0EB021043
:0608A400088002B080BDD7
:0208AA00FEE767
:0208AC00FEE765
:0208AE00FEE763
:0208B000FEE761
:0208B200FEE75F
:0208B400FEE75D
:0208B600FEE75B
:0208B800FEE759
:0208BA00FEE757
:0208BC00FEE755
:0208BE00FEE753
:0208C000FEE751
:0208C200FEE74F
:0208C400FEE74D
:0208C600FEE74B
:0208C800FEE749
:0208CA00FEE747
:0208CC00FEE745
:0208CE00FEE743
:0208D000FEE741
:0208D200FEE73F
:0208D400FEE73D
:0208D600FEE73B
:0208D800FEE739
:0208DA00FEE737
:0208DC00FEE735
:0208DE00FEE733
:0208E000FEE731
:0208E200FEE72F
:0208E400FEE72D
:0208E600FEE72B
:0208E800FEE729
:0208EA00FEE727
:0208EC00FEE725
:0208EE00FEE723
:0208F000FEE721
:0208F200FEE71F
:0208F400FEE71D
:0208F600FEE71B
:0208F800FEE719
:0208FA00FEE717
:0208FC00FEE715
:0208FE00FEE713
:02090000FEE710
:0E09020040F2D441C2F20001096800F000B8D2
:1009100080B50B468DF803000DF103000121012283
:1009200000F007F89DF80310002808BF411E084694
:0209300008BD00
:10093200F8B51D4617460C460646184600F0AAF9B9
:10094200002803D407FB04F2A24201D20020F8BD22
:0E0952002846314600F003F8B0FBF4F0F8BD83
:06096000006800F02DB854
:1009660070B50D4600EB400040F20001C2F20001F6
:1009760001EBC00000F11806C06A02280AD014462E
:1009860001280DD020B9304600F0D0F9A0420DD292
:10099600002410E030462946BDE8704000F0F2B968
:1009A600304600F0C3F9A04238BF04463046294617
:0A09B600224600F0C5F9204670BD8E
:1009C000F8B514460D4640F20001C2F20001064699
:1009D0000878002808BF00F07AF9EFF311874FF08C
:1009E000200181F31188304629462246FFF7BBFFDC
:0609F00087F31188F8BD39
:1009F60040F2E041C2F2000149F20000C0F2D030FC
:040A060008607047CD
:100A0A0040F26871C5F2000140F20260086040F6E7
:100A1A000021C5F20001086043F20051C4F200014E
:100A2A000520086043F20851C4F200011A20086048
:100A3A0043F20C51C4F200012020086043F2245111
:100A4A00C4F200014FF0CC70086043F28851C4F23E
:080A5A00000110200860704744
:100A620040F20071C5F20001032008604CF26051AF
:100A7200C4F20101002008604CF20052C4F20102EB
:100A8200012111604CF20452C4F2010210604CF2D6
:100A92000C53C4F2010302221A604CF21452C4F243
:100AA200010210604CF21052C4F20102106040F2D6
:100AB200B402C2F200024CF22053C4F201031A60E3
:100AC2004CF22452C4F2010211604CF22851C4F2D9
:100AD200010108604CF22C51C4F201010860704718
:100AE20081B08DF803009DF9030000280CD49DF914
:100AF200031001F01F02012090404A094EF28021AA
:0C0B0200CEF2000141F8220001B0704763
:100B0E0081B08DF803009DF9030000280CD49DF9E7
:100B1E00031001F01F02012090404A094EF200110D
:0C0B2E00CEF2000141F8220001B0704737
:100B3A0080B582B000200190FFF762FFFFF78CFFBB
:100B4A00FFF733FE4FF080410120086040F20010A9
:100B5A00C4F20000006800B9F8E741F21051C4F28B
:100B6A0000010520086041F20C51C4F2000108207E
:100B7A00086041F21451C4F2000140F20810C6F2B2
:100B8A008030086041F21851C4F200010920C0F215
:100B9A000300086041F21C51C4F200014FF0AA3070
:100BAA00086041F22C50C4F200000021016041F2B9
:100BBA003052C4F200020120106041F24452C4F2E1
:100BCA000002116041F23452C4F2000240F20311F1
:100BDA00116041F23C52C4F200024FF6FF711160FB
:100BEA0041F23852C4F2000240F25B61116041F2F4
:100BFA000852C4F200022821116040F2C841C2F230
:100C0A00000141F20452C4F20002116041F20022D2
:100C1A00C4F200020B21116041F20401C4F2000186
:100C2A00086041F20832C4F200024FF0FF3111604D
:100C3A00FFF768FF41F20431C4F200011020086096
:040C4A0020BFFDE7E3
:100C4E00FFF767FB4EF68850CEF20000016851F4B4
:080C5E0070010160FFF725FBA6
:100C660038B540F2D441C2F2000104460D6800F0E6
:100C7600B5F8024628462146FFF76FFE01301EBF33
:100C86000A20BDE83840FFF739BE4FF0FF3038BDC7
:100C960040F2D441C2F2000140F2DC42C2F200024C
:100CA60040F2D843C2F2000309681B681268091AA9
:100CB60018BF01211B1A18BF01231940101A18BFAB
:080CC600012008404042704784
:100CCE0040F20000C2F2000003210161416140F6D2
:100CDE001F61C0F20001816140F2B802C2F200024F
:100CEE00C2614FF480620262002282624262C2627C
:100CFE00016640F2B841C2F20001416610218166E0
:100D0E000267C2664267BFF35F8F0F2140F60E6225
:100D1E00C0F20002535C00F8013B0139FAD2BFF376
:040D2E005F8F70471C
:100D3200C268016991428FBFD0438068D243114497
:040D420008447047AA
:100D46002DE9F0411546884604464068D4E9021666
:100D560030448F1B9742414605D9FFF7B0FA354418
:100D6600BFF35F8F0BE03A46FFF7A9FA08EB0701DE
:100D76006068ED1B2A46FFF7A2FABFF35F8FE560B6
:040D8600BDE8F08153
:100D8A002DE9F843144688460546C7684FF000091E
:100D9A002869A968FA43B8429ABF10444218024423
:100DAA0068683844CE1BB24238BF1646A64228BFEE
:100DBA00264641463246FFF780FAA868F1190F1A0B
:100DCA0018BF0F46BFF35F8FEF60A41BB044B14456
:080DDA00DED14846BDE8F883B4
:100DE2000178002904BF0020704700214FF0013232
:100DF2004358C2FA53F30431002BF9D093FAA3F00B
:0C0E0200B0FA80F001EBD000043870471B
:100E0E0000000000000054545220524547474553FD
:010E1E0000D3
:090E1F005465726D696E616C008E
:040E2800F7090000C6
:0C0E2C00496E76616C69642043524300FB
:100E380000B506480649884205D00268043003B464
:100E4800904703BCF7E708BC18470000280E0000CD
:040E58002C0E00005C
:100E5C006B0F000000000020D1040000210F0000E7
:100E6C00D40400207C0E0000390E0000BB020000F0
:100E7C0015A8000020AC000020B00000200090D08D
:100E8C000335353535008B0104672F672F8C100423
:100E9C00DC27DC279C2002A31F84028C128E01A06D
:100EAC002002832384029A20B480A08C22A060A00C
:100EBC002084608A02C680A09C209280A004BE2C54
:100ECC00BE2CAA8120A0208680F09A80F29080EC23
:100EDC000A99010201140088990101860703020195
:100EEC00328507010085070101860E0101850E0C74
:100EFC00090300000088990F01FFFFFF850701A57A
:100F0C00850E8615010286150102861501028415CF
:040F1C0000000000D1
:100F20002068616808340A78013112421BD0802A97
:100F300012D3803A18D00B780131802B04D3803B38
:100F40001B020D7801315B19C51A2B78037001352E
:100F50000130013AF9D1E6E70B7801310370013035
:0A0F6000013AF9D1DFE77047FEE720
:100F6A00206861680834002200E042540139FCD547
:020F7A007047BE
:0400000300000C4F9E
:00000001FF
